{
  "_format": "hh-sol-artifact-1",
  "contractName": "BountySystem",
  "sourceName": "contracts/BountySystem.sol",
  "abi": [
    {
      "anonymous": false,
      "inputs": [
        {
          "indexed": true,
          "internalType": "bytes32",
          "name": "bountyId",
          "type": "bytes32"
        }
      ],
      "name": "BountyCancelled",
      "type": "event"
    },
    {
      "anonymous": false,
      "inputs": [
        {
          "indexed": true,
          "internalType": "bytes32",
          "name": "bountyId",
          "type": "bytes32"
        },
        {
          "indexed": true,
          "internalType": "address",
          "name": "winner",
          "type": "address"
        },
        {
          "indexed": false,
          "internalType": "uint256",
          "name": "reward",
          "type": "uint256"
        }
      ],
      "name": "BountyCompleted",
      "type": "event"
    },
    {
      "anonymous": false,
      "inputs": [
        {
          "indexed": true,
          "internalType": "bytes32",
          "name": "bountyId",
          "type": "bytes32"
        },
        {
          "indexed": true,
          "internalType": "address",
          "name": "creator",
          "type": "address"
        },
        {
          "indexed": false,
          "internalType": "uint256",
          "name": "reward",
          "type": "uint256"
        }
      ],
      "name": "BountyCreated",
      "type": "event"
    },
    {
      "inputs": [
        {
          "internalType": "bytes32",
          "name": "",
          "type": "bytes32"
        }
      ],
      "name": "bounties",
      "outputs": [
        {
          "internalType": "address",
          "name": "creator",
          "type": "address"
        },
        {
          "internalType": "uint256",
          "name": "reward",
          "type": "uint256"
        },
        {
          "internalType": "bool",
          "name": "isOpen",
          "type": "bool"
        },
        {
          "internalType": "address",
          "name": "winner",
          "type": "address"
        }
      ],
      "stateMutability": "view",
      "type": "function"
    },
    {
      "inputs": [
        {
          "internalType": "bytes32",
          "name": "bountyId",
          "type": "bytes32"
        }
      ],
      "name": "cancelBounty",
      "outputs": [],
      "stateMutability": "nonpayable",
      "type": "function"
    },
    {
      "inputs": [
        {
          "internalType": "bytes32",
          "name": "bountyId",
          "type": "bytes32"
        },
        {
          "internalType": "address",
          "name": "winner",
          "type": "address"
        }
      ],
      "name": "completeBounty",
      "outputs": [],
      "stateMutability": "nonpayable",
      "type": "function"
    },
    {
      "inputs": [
        {
          "internalType": "bytes32",
          "name": "bountyId",
          "type": "bytes32"
        }
      ],
      "name": "createBounty",
      "outputs": [],
      "stateMutability": "payable",
      "type": "function"
    }
  ],
  "bytecode": "0x6080604052348015600f57600080fd5b50610de58061001f6000396000f3fe60806040526004361061003f5760003560e01c8063148828de146100445780633b0b43a614610060578063ad63032c14610089578063bf5522da146100b2575b600080fd5b61005e600480360381019061005991906108f6565b6100f2565b005b34801561006c57600080fd5b50610087600480360381019061008291906108f6565b610349565b005b34801561009557600080fd5b506100b060048036038101906100ab9190610981565b61056b565b005b3480156100be57600080fd5b506100d960048036038101906100d491906108f6565b61083e565b6040516100e99493929190610a04565b60405180910390f35b60003411610135576040517f08c379a000000000000000000000000000000000000000000000000000000000815260040161012c90610aa6565b60405180910390fd5b600073ffffffffffffffffffffffffffffffffffffffff1660008083815260200190815260200160002060000160009054906101000a900473ffffffffffffffffffffffffffffffffffffffff1673ffffffffffffffffffffffffffffffffffffffff16146101d9576040517f08c379a00000000000000000000000000000000000000000000000000000000081526004016101d090610b12565b60405180910390fd5b60405180608001604052803373ffffffffffffffffffffffffffffffffffffffff168152602001348152602001600115158152602001600073ffffffffffffffffffffffffffffffffffffffff1681525060008083815260200190815260200160002060008201518160000160006101000a81548173ffffffffffffffffffffffffffffffffffffffff021916908373ffffffffffffffffffffffffffffffffffffffff1602179055506020820151816001015560408201518160020160006101000a81548160ff02191690831515021790555060608201518160020160016101000a81548173ffffffffffffffffffffffffffffffffffffffff021916908373ffffffffffffffffffffffffffffffffffffffff1602179055509050503373ffffffffffffffffffffffffffffffffffffffff16817f8faf7d9ee3c40e0e4d2b32ca323b8d9ebf98fc58961395caf2731889e0c377703460405161033e9190610b32565b60405180910390a350565b600080600083815260200190815260200160002090503373ffffffffffffffffffffffffffffffffffffffff168160000160009054906101000a900473ffffffffffffffffffffffffffffffffffffffff1673ffffffffffffffffffffffffffffffffffffffff16146103f1576040517f08c379a00000000000000000000000000000000000000000000000000000000081526004016103e890610b99565b60405180910390fd5b8060020160009054906101000a900460ff16610442576040517f08c379a000000000000000000000000000000000000000000000000000000000815260040161043990610c05565b60405180910390fd5b60008160020160006101000a81548160ff02191690831515021790555060008160010154905060008260000160009054906101000a900473ffffffffffffffffffffffffffffffffffffffff1673ffffffffffffffffffffffffffffffffffffffff16826040516104b290610c56565b60006040518083038185875af1925050503d80600081146104ef576040519150601f19603f3d011682016040523d82523d6000602084013e6104f4565b606091505b5050905080610538576040517f08c379a000000000000000000000000000000000000000000000000000000000815260040161052f90610cb7565b60405180910390fd5b837fa5b9fb4dbe7664b5e43d58dda77038878a8b9919d52993bf61f49d0f02ada2c860405160405180910390a250505050565b600080600084815260200190815260200160002090503373ffffffffffffffffffffffffffffffffffffffff168160000160009054906101000a900473ffffffffffffffffffffffffffffffffffffffff1673ffffffffffffffffffffffffffffffffffffffff1614610613576040517f08c379a000000000000000000000000000000000000000000000000000000000815260040161060a90610d23565b60405180910390fd5b8060020160009054906101000a900460ff16610664576040517f08c379a000000000000000000000000000000000000000000000000000000000815260040161065b90610c05565b60405180910390fd5b600073ffffffffffffffffffffffffffffffffffffffff168273ffffffffffffffffffffffffffffffffffffffff16036106d3576040517f08c379a00000000000000000000000000000000000000000000000000000000081526004016106ca90610d8f565b60405180910390fd5b60008160020160006101000a81548160ff021916908315150217905550818160020160016101000a81548173ffffffffffffffffffffffffffffffffffffffff021916908373ffffffffffffffffffffffffffffffffffffffff16021790555060008160010154905060008373ffffffffffffffffffffffffffffffffffffffff168260405161076290610c56565b60006040518083038185875af1925050503d806000811461079f576040519150601f19603f3d011682016040523d82523d6000602084013e6107a4565b606091505b50509050806107e8576040517f08c379a00000000000000000000000000000000000000000000000000000000081526004016107df90610cb7565b60405180910390fd5b8373ffffffffffffffffffffffffffffffffffffffff16857fd2975a4c446a618fefb2becbaf43ac5e8938d717c6576b6af9f544e2359655358460405161082f9190610b32565b60405180910390a35050505050565b60006020528060005260406000206000915090508060000160009054906101000a900473ffffffffffffffffffffffffffffffffffffffff16908060010154908060020160009054906101000a900460ff16908060020160019054906101000a900473ffffffffffffffffffffffffffffffffffffffff16905084565b600080fd5b6000819050919050565b6108d3816108c0565b81146108de57600080fd5b50565b6000813590506108f0816108ca565b92915050565b60006020828403121561090c5761090b6108bb565b5b600061091a848285016108e1565b91505092915050565b600073ffffffffffffffffffffffffffffffffffffffff82169050919050565b600061094e82610923565b9050919050565b61095e81610943565b811461096957600080fd5b50565b60008135905061097b81610955565b92915050565b60008060408385031215610998576109976108bb565b5b60006109a6858286016108e1565b92505060206109b78582860161096c565b9150509250929050565b6109ca81610943565b82525050565b6000819050919050565b6109e3816109d0565b82525050565b60008115159050919050565b6109fe816109e9565b82525050565b6000608082019050610a1960008301876109c1565b610a2660208301866109da565b610a3360408301856109f5565b610a4060608301846109c1565b95945050505050565b600082825260208201905092915050565b7f526577617264206d7573742062652067726561746572207468616e2030000000600082015250565b6000610a90601d83610a49565b9150610a9b82610a5a565b602082019050919050565b60006020820190508181036000830152610abf81610a83565b9050919050565b7f426f756e747920494420616c7265616479206578697374730000000000000000600082015250565b6000610afc601883610a49565b9150610b0782610ac6565b602082019050919050565b60006020820190508181036000830152610b2b81610aef565b9050919050565b6000602082019050610b4760008301846109da565b92915050565b7f4f6e6c792063726561746f722063616e2063616e63656c20626f756e74790000600082015250565b6000610b83601e83610a49565b9150610b8e82610b4d565b602082019050919050565b60006020820190508181036000830152610bb281610b76565b9050919050565b7f426f756e7479206973206e6f74206f70656e0000000000000000000000000000600082015250565b6000610bef601283610a49565b9150610bfa82610bb9565b602082019050919050565b60006020820190508181036000830152610c1e81610be2565b9050919050565b600081905092915050565b50565b6000610c40600083610c25565b9150610c4b82610c30565b600082019050919050565b6000610c6182610c33565b9150819050919050565b7f5472616e73666572206661696c65640000000000000000000000000000000000600082015250565b6000610ca1600f83610a49565b9150610cac82610c6b565b602082019050919050565b60006020820190508181036000830152610cd081610c94565b9050919050565b7f4f6e6c792063726561746f722063616e20636f6d706c65746520626f756e7479600082015250565b6000610d0d602083610a49565b9150610d1882610cd7565b602082019050919050565b60006020820190508181036000830152610d3c81610d00565b9050919050565b7f496e76616c69642077696e6e6572206164647265737300000000000000000000600082015250565b6000610d79601683610a49565b9150610d8482610d43565b602082019050919050565b60006020820190508181036000830152610da881610d6c565b905091905056fea2646970667358221220ace4b2b89cebc0b2ec18578bb95404991e5a4010de481efa940f454ba1d42f8364736f6c634300081c0033",
  "linkReferences": {},
  "deployedLinkReferences": {}
}