{
  "_format": "hh-sol-artifact-1",
  "contractName": "BountySystem",
  "sourceName": "contracts/BountySystem.sol",
  "abi": [
    {
      "inputs": [],
      "name": "BountyExists",
      "type": "error"
    },
    {
      "inputs": [],
      "name": "BountyNotOpen",
      "type": "error"
    },
    {
      "inputs": [],
      "name": "InvalidWinner",
      "type": "error"
    },
    {
      "inputs": [],
      "name": "NotBountyCreator",
      "type": "error"
    },
    {
      "inputs": [],
      "name": "TransferFailed",
      "type": "error"
    },
    {
      "inputs": [],
      "name": "ZeroReward",
      "type": "error"
    },
    {
      "anonymous": false,
      "inputs": [
        {
          "indexed": true,
          "internalType": "bytes32",
          "name": "bountyId",
          "type": "bytes32"
        }
      ],
      "name": "BountyCancelled",
      "type": "event"
    },
    {
      "anonymous": false,
      "inputs": [
        {
          "indexed": true,
          "internalType": "bytes32",
          "name": "bountyId",
          "type": "bytes32"
        },
        {
          "indexed": true,
          "internalType": "address",
          "name": "winner",
          "type": "address"
        },
        {
          "indexed": false,
          "internalType": "uint256",
          "name": "reward",
          "type": "uint256"
        }
      ],
      "name": "BountyCompleted",
      "type": "event"
    },
    {
      "anonymous": false,
      "inputs": [
        {
          "indexed": true,
          "internalType": "bytes32",
          "name": "bountyId",
          "type": "bytes32"
        },
        {
          "indexed": true,
          "internalType": "address",
          "name": "creator",
          "type": "address"
        },
        {
          "indexed": false,
          "internalType": "uint256",
          "name": "reward",
          "type": "uint256"
        }
      ],
      "name": "BountyCreated",
      "type": "event"
    },
    {
      "inputs": [
        {
          "internalType": "bytes32",
          "name": "",
          "type": "bytes32"
        }
      ],
      "name": "bounties",
      "outputs": [
        {
          "internalType": "address",
          "name": "creator",
          "type": "address"
        },
        {
          "internalType": "uint96",
          "name": "reward",
          "type": "uint96"
        },
        {
          "internalType": "bool",
          "name": "isOpen",
          "type": "bool"
        },
        {
          "internalType": "address",
          "name": "winner",
          "type": "address"
        }
      ],
      "stateMutability": "view",
      "type": "function"
    },
    {
      "inputs": [
        {
          "internalType": "bytes32",
          "name": "bountyId",
          "type": "bytes32"
        }
      ],
      "name": "cancelBounty",
      "outputs": [],
      "stateMutability": "nonpayable",
      "type": "function"
    },
    {
      "inputs": [
        {
          "internalType": "bytes32",
          "name": "bountyId",
          "type": "bytes32"
        },
        {
          "internalType": "address",
          "name": "winner",
          "type": "address"
        }
      ],
      "name": "completeBounty",
      "outputs": [],
      "stateMutability": "nonpayable",
      "type": "function"
    },
    {
      "inputs": [
        {
          "internalType": "bytes32",
          "name": "bountyId",
          "type": "bytes32"
        }
      ],
      "name": "createBounty",
      "outputs": [],
      "stateMutability": "payable",
      "type": "function"
    }
  ],
  "bytecode": "0x6080604052348015600f57600080fd5b50610b558061001f6000396000f3fe60806040526004361061003f5760003560e01c8063148828de146100445780633b0b43a614610060578063ad63032c14610089578063bf5522da146100b2575b600080fd5b61005e60048036038101906100599190610944565b6100f2565b005b34801561006c57600080fd5b5061008760048036038101906100829190610944565b610372565b005b34801561009557600080fd5b506100b060048036038101906100ab91906109cf565b61059f565b005b3480156100be57600080fd5b506100d960048036038101906100d49190610944565b610874565b6040516100e99493929190610a60565b60405180910390f35b6000340361012c576040517f9c1b278400000000000000000000000000000000000000000000000000000000815260040160405180910390fd5b600073ffffffffffffffffffffffffffffffffffffffff1660008083815260200190815260200160002060000160009054906101000a900473ffffffffffffffffffffffffffffffffffffffff1673ffffffffffffffffffffffffffffffffffffffff16146101c7576040517f9f51084300000000000000000000000000000000000000000000000000000000815260040160405180910390fd5b60405180608001604052803373ffffffffffffffffffffffffffffffffffffffff168152602001346bffffffffffffffffffffffff168152602001600115158152602001600073ffffffffffffffffffffffffffffffffffffffff1681525060008083815260200190815260200160002060008201518160000160006101000a81548173ffffffffffffffffffffffffffffffffffffffff021916908373ffffffffffffffffffffffffffffffffffffffff16021790555060208201518160000160146101000a8154816bffffffffffffffffffffffff02191690836bffffffffffffffffffffffff16021790555060408201518160010160006101000a81548160ff02191690831515021790555060608201518160010160016101000a81548173ffffffffffffffffffffffffffffffffffffffff021916908373ffffffffffffffffffffffffffffffffffffffff1602179055509050503373ffffffffffffffffffffffffffffffffffffffff16817f8faf7d9ee3c40e0e4d2b32ca323b8d9ebf98fc58961395caf2731889e0c37770346040516103679190610abe565b60405180910390a350565b600080600083815260200190815260200160002090503373ffffffffffffffffffffffffffffffffffffffff168160000160009054906101000a900473ffffffffffffffffffffffffffffffffffffffff1673ffffffffffffffffffffffffffffffffffffffff1614610411576040517fc863c98200000000000000000000000000000000000000000000000000000000815260040160405180910390fd5b8060010160009054906101000a900460ff16610459576040517f484cd26400000000000000000000000000000000000000000000000000000000815260040160405180910390fd5b60008160000160149054906101000a90046bffffffffffffffffffffffff166bffffffffffffffffffffffff16905060008260010160006101000a81548160ff02191690831515021790555060008260000160009054906101000a900473ffffffffffffffffffffffffffffffffffffffff1673ffffffffffffffffffffffffffffffffffffffff16826040516104ef90610b0a565b60006040518083038185875af1925050503d806000811461052c576040519150601f19603f3d011682016040523d82523d6000602084013e610531565b606091505b505090508061056c576040517f90b8ec1800000000000000000000000000000000000000000000000000000000815260040160405180910390fd5b837fa5b9fb4dbe7664b5e43d58dda77038878a8b9919d52993bf61f49d0f02ada2c860405160405180910390a250505050565b600080600084815260200190815260200160002090503373ffffffffffffffffffffffffffffffffffffffff168160000160009054906101000a900473ffffffffffffffffffffffffffffffffffffffff1673ffffffffffffffffffffffffffffffffffffffff161461063e576040517fc863c98200000000000000000000000000000000000000000000000000000000815260040160405180910390fd5b8060010160009054906101000a900460ff16610686576040517f484cd26400000000000000000000000000000000000000000000000000000000815260040160405180910390fd5b600073ffffffffffffffffffffffffffffffffffffffff168273ffffffffffffffffffffffffffffffffffffffff16036106ec576040517f93a5f3c700000000000000000000000000000000000000000000000000000000815260040160405180910390fd5b60008160000160149054906101000a90046bffffffffffffffffffffffff166bffffffffffffffffffffffff16905060008260010160006101000a81548160ff021916908315150217905550828260010160016101000a81548173ffffffffffffffffffffffffffffffffffffffff021916908373ffffffffffffffffffffffffffffffffffffffff16021790555060008373ffffffffffffffffffffffffffffffffffffffff16826040516107a190610b0a565b60006040518083038185875af1925050503d80600081146107de576040519150601f19603f3d011682016040523d82523d6000602084013e6107e3565b606091505b505090508061081e576040517f90b8ec1800000000000000000000000000000000000000000000000000000000815260040160405180910390fd5b8373ffffffffffffffffffffffffffffffffffffffff16857fd2975a4c446a618fefb2becbaf43ac5e8938d717c6576b6af9f544e235965535846040516108659190610abe565b60405180910390a35050505050565b60006020528060005260406000206000915090508060000160009054906101000a900473ffffffffffffffffffffffffffffffffffffffff16908060000160149054906101000a90046bffffffffffffffffffffffff16908060010160009054906101000a900460ff16908060010160019054906101000a900473ffffffffffffffffffffffffffffffffffffffff16905084565b600080fd5b6000819050919050565b6109218161090e565b811461092c57600080fd5b50565b60008135905061093e81610918565b92915050565b60006020828403121561095a57610959610909565b5b60006109688482850161092f565b91505092915050565b600073ffffffffffffffffffffffffffffffffffffffff82169050919050565b600061099c82610971565b9050919050565b6109ac81610991565b81146109b757600080fd5b50565b6000813590506109c9816109a3565b92915050565b600080604083850312156109e6576109e5610909565b5b60006109f48582860161092f565b9250506020610a05858286016109ba565b9150509250929050565b610a1881610991565b82525050565b60006bffffffffffffffffffffffff82169050919050565b610a3f81610a1e565b82525050565b60008115159050919050565b610a5a81610a45565b82525050565b6000608082019050610a756000830187610a0f565b610a826020830186610a36565b610a8f6040830185610a51565b610a9c6060830184610a0f565b95945050505050565b6000819050919050565b610ab881610aa5565b82525050565b6000602082019050610ad36000830184610aaf565b92915050565b600081905092915050565b50565b6000610af4600083610ad9565b9150610aff82610ae4565b600082019050919050565b6000610b1582610ae7565b915081905091905056fea2646970667358221220319055ed66c0007221b0e3374257aba4f6e13b8aea3ae524406ae0cab69f2b9764736f6c634300081c0033",
  "linkReferences": {},
  "deployedLinkReferences": {}
}